S0200000317365636F6E645F54696D6572315F696E746572727570742E737265637A
S113000012C021C020C01FC01EC01DC01CC01BC008
S113001026C019C018C017C016C015C014C013C01C
S113002012C011C010C011241FBECFE5D4E0DEBF42
S1130030CDBF20E0A0E6B0E001C01D92A236B20719
S1130040E1F749D054C0DCCF88E08AB986E880BDA6
S11300508DE489B908955D9BFECF8CB908951F92F4
S11300600F920FB60F9211242F933F934F935F93E8
S11300706F937F938F939F93AF93BF93EF93FF936C
S1130080809161008F5F80936100809161008C3367
S113009038F0809160008F5F80936000109261005F
S11300A080916100D8DF80916000D5DF82ED8DBD45
S11300B089E38CBDFF91EF91BF91AF919F918F9197
S11300C07F916F915F914F913F912F910F900FBE50
S11300D00F901F90189582ED8DBD89E38CBD1FBCD8
S11300E085E08EBD84E089BF7894AEDFFFCFF894BD
S10500F0FFCF3C
S9030000FC
